:040000008A110B282E
:10000800FE00030EF0000A08F1008A1176298A1111
:100018000D2883132C30FD000130FE00F230FF0064
:10002800203084008A11E5218A118A1114228A114C
:10003800F9008A1115228A11FA00AC01AD01AE014E
:10004800AF01B001B101B201B301B401F701F80188
:1000580083018A112F288A1138218A1183120313E8
:10006800071205120717861385128A11A3218A1110
:10007800730883120313B3007208B20053280330C5
:1000880083120313B7008A30B6005530B500B50B9C
:100098004B28B60B4B28B70B4B28000039283308E0
:1000A800803AFF0082307F02031D5C28153032023F
:1000B800031C5F28602843288312031385108617C2
:1000C80071287808B5003507B6003608F800070D1E
:1000D800070D0139B5003508F8047F307806031D8F
:1000E800762877286528C0308B008516CE28851499
:1000F8007A08B5003507B6003608FA00060EB500CE
:10010800B50C350C0139B6003608FA047908B50083
:100118003507B6003608F900060EB500350C01396A
:10012800B6003608F90480307A06031D9C289D28FD
:10013800A7280B3077020318A228A328A728013084
:10014800B5003508F70780307906031DAC28AD28BF
:10015800B42877080319B128B228B4280130F70267
:100168007708203E8400831300080339B500B50ED4
:1001780017083506CF39350697007708203E8400E2
:100188000008B50002300310B50CFF3E031DC72858
:1001980035089500871FD128D228D628861BD52850
:1001A800D6287B28CF309705950185128613071628
:1001B800043083120313B5003508F20001308A11A8
:1001C800E9208A11DC288A110B28F5007208F3004F
:1001D8007308F60006307502031CF328F428F82883
:1001E8000530F3007308F5000B307202031CFD287C
:1001F800FE2802290A30F3007308F2008312031361
:1002080007168230F400DD30F300F30B0929F40BF4
:1002180009290E290130F602031D1329142905297D
:100228007208F3007308F600831203130712823072
:10023800F400DD30F300F30B1F29F40B1F292429E8
:100248000130F602031D29292A291B297208F30007
:100258007308F6000130F502031D332934290229F9
:1002680083120313071608007130831603138F00D7
:100278000230831203138500860170308700203016
:10028800831603139F008B019601831203179601AF
:10029800831203138C018D01831203179A1383169B
:1002A80003130D130D308500703086008F308700E2
:1002B800831203179E019F011E151E169E168A1192
:1002C800C3218A112030831203139000AF308E00AF
:1002D8003C308F00831603130C110C148A110A2268
:1002E8008A1108008B13831603138D1E7C297D2920
:1002F8008A29831203138D1E822983298A290130B2
:10030800AC070318AD0A0030AD078D12831603132E
:100318000C1C8F2990299C29831203130C1C9529E6
:1003280096299C298312031799138312031310101B
:1003380071088A00700E8300FE0E7E0E0900831677
:1003480003139E01831203139E011F1095309F0013
:100358000D30F500FB30F400F40BB029F50BB02993
:10036800B529831203139F149F18BB29BC29B829E8
:100378001E08F300831603131E08F20008008316F4
:1003880003138716653092000E308312031397000B
:100398000130831603179D00CF308312031397058E
:1003A80095018C10FC30920512158C1CDC29DD2976
:1003B800D92983160313871208007E088A007F084C
:1003C80082008A11E1218A118000840A04087D06CE
:1003D80003190034FF0A0319FE0AE52900343134F1
:1003E800423453346434753486349734A834BA3478
:0403F800CB34DC34F2
:1004000002308A000408840A820700340E34013462
:1004100014340234831603138D16473083120317E6
:0C0420009900103098000800FF34FF34F1
:08400000FF3FFF3FFF3FFF3FC0
:02400E00E4309C
:00000001FF
